{
    "_format": "hh-sol-artifact-1",
    "contractName": "NFTClaim",
    "sourceName": "contracts/NFTClaim.sol",
    "abi": [
        {
            "inputs": [
                {
                    "internalType": "address",
                    "name": "tokenAddress",
                    "type": "address"
                },
                {
                    "internalType": "address[]",
                    "name": "nftCommunityAddresses",
                    "type": "address[]"
                }
            ],
            "stateMutability": "nonpayable",
            "type": "constructor"
        },
        {
            "anonymous": false,
            "inputs": [
                {
                    "indexed": true,
                    "internalType": "address",
                    "name": "previousOwner",
                    "type": "address"
                },
                {
                    "indexed": true,
                    "internalType": "address",
                    "name": "newOwner",
                    "type": "address"
                }
            ],
            "name": "OwnershipTransferred",
            "type": "event"
        },
        {
            "inputs": [
                {
                    "internalType": "address",
                    "name": "",
                    "type": "address"
                }
            ],
            "name": "airdropAmounts",
            "outputs": [
                {
                    "internalType": "uint256",
                    "name": "",
                    "type": "uint256"
                }
            ],
            "stateMutability": "view",
            "type": "function"
        },
        {
            "inputs": [
                {
                    "internalType": "address",
                    "name": "nftCommunity",
                    "type": "address"
                },
                {
                    "internalType": "uint256",
                    "name": "nftId",
                    "type": "uint256"
                }
            ],
            "name": "claim",
            "outputs": [],
            "stateMutability": "nonpayable",
            "type": "function"
        },
        {
            "inputs": [
                {
                    "internalType": "address",
                    "name": "nftCommunity",
                    "type": "address"
                }
            ],
            "name": "getAirdropAmountForCommunity",
            "outputs": [
                {
                    "internalType": "uint256",
                    "name": "",
                    "type": "uint256"
                }
            ],
            "stateMutability": "view",
            "type": "function"
        },
        {
            "inputs": [
                {
                    "internalType": "address",
                    "name": "",
                    "type": "address"
                }
            ],
            "name": "hasClaimedForCollection",
            "outputs": [
                {
                    "internalType": "bool",
                    "name": "",
                    "type": "bool"
                }
            ],
            "stateMutability": "view",
            "type": "function"
        },
        {
            "inputs": [
                {
                    "internalType": "address",
                    "name": "",
                    "type": "address"
                },
                {
                    "internalType": "uint256",
                    "name": "",
                    "type": "uint256"
                }
            ],
            "name": "hasClaimedNFT",
            "outputs": [
                {
                    "internalType": "bool",
                    "name": "",
                    "type": "bool"
                }
            ],
            "stateMutability": "view",
            "type": "function"
        },
        {
            "inputs": [
                {
                    "internalType": "address",
                    "name": "",
                    "type": "address"
                }
            ],
            "name": "hasDistributed",
            "outputs": [
                {
                    "internalType": "bool",
                    "name": "",
                    "type": "bool"
                }
            ],
            "stateMutability": "view",
            "type": "function"
        },
        {
            "inputs": [],
            "name": "isAirdropActive",
            "outputs": [
                {
                    "internalType": "bool",
                    "name": "",
                    "type": "bool"
                }
            ],
            "stateMutability": "view",
            "type": "function"
        },
        {
            "inputs": [
                {
                    "internalType": "uint256",
                    "name": "",
                    "type": "uint256"
                }
            ],
            "name": "nftCommunities",
            "outputs": [
                {
                    "internalType": "address",
                    "name": "",
                    "type": "address"
                }
            ],
            "stateMutability": "view",
            "type": "function"
        },
        {
            "inputs": [],
            "name": "owner",
            "outputs": [
                {
                    "internalType": "address",
                    "name": "",
                    "type": "address"
                }
            ],
            "stateMutability": "view",
            "type": "function"
        },
        {
            "inputs": [],
            "name": "renounceOwnership",
            "outputs": [],
            "stateMutability": "nonpayable",
            "type": "function"
        },
        {
            "inputs": [
                {
                    "internalType": "address",
                    "name": "nftCommunity",
                    "type": "address"
                },
                {
                    "internalType": "uint256",
                    "name": "_airdropAmount",
                    "type": "uint256"
                }
            ],
            "name": "setAirdropAmountForCommunity",
            "outputs": [],
            "stateMutability": "nonpayable",
            "type": "function"
        },
        {
            "inputs": [
                {
                    "internalType": "address[]",
                    "name": "nftCommunityAddresses",
                    "type": "address[]"
                }
            ],
            "name": "setNFTCommunities",
            "outputs": [],
            "stateMutability": "nonpayable",
            "type": "function"
        },
        {
            "inputs": [
                {
                    "internalType": "address",
                    "name": "tokenAddress",
                    "type": "address"
                }
            ],
            "name": "setTokenContract",
            "outputs": [],
            "stateMutability": "nonpayable",
            "type": "function"
        },
        {
            "inputs": [],
            "name": "token",
            "outputs": [
                {
                    "internalType": "contract IERC20",
                    "name": "",
                    "type": "address"
                }
            ],
            "stateMutability": "view",
            "type": "function"
        },
        {
            "inputs": [
                {
                    "internalType": "address",
                    "name": "newOwner",
                    "type": "address"
                }
            ],
            "name": "transferOwnership",
            "outputs": [],
            "stateMutability": "nonpayable",
            "type": "function"
        },
        {
            "inputs": [
                {
                    "internalType": "bool",
                    "name": "active",
                    "type": "bool"
                }
            ],
            "name": "updateAirdropStatus",
            "outputs": [],
            "stateMutability": "nonpayable",
            "type": "function"
        },
        {
            "inputs": [
                {
                    "internalType": "address",
                    "name": "tokenAddress",
                    "type": "address"
                },
                {
                    "internalType": "uint256",
                    "name": "amount",
                    "type": "uint256"
                }
            ],
            "name": "withdrawExcessTokens",
            "outputs": [],
            "stateMutability": "nonpayable",
            "type": "function"
        },
        {
            "inputs": [],
            "name": "withdrawStuckETH",
            "outputs": [],
            "stateMutability": "nonpayable",
            "type": "function"
        }
    ],
    "bytecode": "0x60806040523480156200001157600080fd5b5060405162001aa238038062001aa283398181016040528101906200003791906200043c565b620000576200004b620000d460201b60201c565b620000dc60201b60201c565b81600160006101000a81548173ffffffffffffffffffffffffffffffffffffffff021916908373ffffffffffffffffffffffffffffffffffffffff1602179055508060029080519060200190620000b0929190620001a0565b506000600660006101000a81548160ff0219169083151502179055505050620004a2565b600033905090565b60008060009054906101000a900473ffffffffffffffffffffffffffffffffffffffff169050816000806101000a81548173ffffffffffffffffffffffffffffffffffffffff021916908373ffffffffffffffffffffffffffffffffffffffff1602179055508173ffffffffffffffffffffffffffffffffffffffff168173ffffffffffffffffffffffffffffffffffffffff167f8be0079c531659141344cd1fd0a4f28419497f9722a3daafe3b4186f6b6457e060405160405180910390a35050565b8280548282559060005260206000209081019282156200021c579160200282015b828111156200021b5782518260006101000a81548173ffffffffffffffffffffffffffffffffffffffff021916908373ffffffffffffffffffffffffffffffffffffffff16021790555091602001919060010190620001c1565b5b5090506200022b91906200022f565b5090565b5b808211156200024a57600081600090555060010162000230565b5090565b6000604051905090565b600080fd5b600080fd5b600073ffffffffffffffffffffffffffffffffffffffff82169050919050565b60006200028f8262000262565b9050919050565b620002a18162000282565b8114620002ad57600080fd5b50565b600081519050620002c18162000296565b92915050565b600080fd5b6000601f19601f8301169050919050565b7f4e487b7100000000000000000000000000000000000000000000000000000000600052604160045260246000fd5b6200031782620002cc565b810181811067ffffffffffffffff82111715620003395762000338620002dd565b5b80604052505050565b60006200034e6200024e565b90506200035c82826200030c565b919050565b600067ffffffffffffffff8211156200037f576200037e620002dd565b5b602082029050602081019050919050565b600080fd5b6000620003ac620003a68462000361565b62000342565b90508083825260208201905060208402830185811115620003d257620003d162000390565b5b835b81811015620003ff5780620003ea8882620002b0565b845260208401935050602081019050620003d4565b5050509392505050565b600082601f830112620004215762000420620002c7565b5b81516200043384826020860162000395565b91505092915050565b6000806040838503121562000456576200045562000258565b5b60006200046685828601620002b0565b925050602083015167ffffffffffffffff8111156200048a57620004896200025d565b5b620004988582860162000409565b9150509250929050565b6115f080620004b26000396000f3fe608060405234801561001057600080fd5b50600436106101165760003560e01c8063aad3ec96116100a2578063e20d810f11610071578063e20d810f146102db578063e96a6bda146102f9578063f2fde38b14610329578063f5648a4f14610345578063fc0c546a1461034f57610116565b8063aad3ec9614610243578063bbcd5bbe1461025f578063cc6a44181461027b578063cdc324a9146102ab57610116565b80636387cbd5116100e95780636387cbd5146101b35780636a92618b146101e3578063715018a6146101ff5780638da5cb5b146102095780639727a2ca1461022757610116565b806330ee62c51461011b5780633d42c1f61461014b5780634baaa7d01461017b57806353e052ac14610197575b600080fd5b61013560048036038101906101309190610da9565b61036d565b6040516101429190610e17565b60405180910390f35b61016560048036038101906101609190610e5e565b6103ac565b6040516101729190610e9a565b60405180910390f35b6101956004803603810190610190919061100e565b6103f5565b005b6101b160048036038101906101ac9190611057565b610417565b005b6101cd60048036038101906101c89190610e5e565b6104ed565b6040516101da91906110b2565b60405180910390f35b6101fd60048036038101906101f891906110f9565b61050d565b005b610207610532565b005b610211610546565b60405161021e9190610e17565b60405180910390f35b610241600480360381019061023c9190611057565b61056f565b005b61025d60048036038101906102589190611057565b6105bf565b005b61027960048036038101906102749190610e5e565b61084f565b005b61029560048036038101906102909190611057565b61089b565b6040516102a291906110b2565b60405180910390f35b6102c560048036038101906102c09190610e5e565b6108ca565b6040516102d29190610e9a565b60405180910390f35b6102e36108e2565b6040516102f091906110b2565b60405180910390f35b610313600480360381019061030e9190610e5e565b6108f5565b60405161032091906110b2565b60405180910390f35b610343600480360381019061033e9190610e5e565b610915565b005b61034d610998565b005b610357610a11565b6040516103649190611185565b60405180910390f35b6002818154811061037d57600080fd5b906000526020600020016000915054906101000a900473ffffffffffffffffffffffffffffffffffffffff1681565b6000600760008373ffffffffffffffffffffffffffffffffffffffff1673ffffffffffffffffffffffffffffffffffffffff168152602001908152602001600020549050919050565b6103fd610a37565b8060029080519060200190610413929190610cb8565b5050565b61041f610a37565b60008290508073ffffffffffffffffffffffffffffffffffffffff1663a9059cbb610448610546565b846040518363ffffffff1660e01b81526004016104669291906111a0565b6020604051808303816000875af1158015610485573d6000803e3d6000fd5b505050506040513d601f19601f820116820180604052508101906104a991906111de565b6104e8576040517f08c379a00000000000000000000000000000000000000000000000000000000081526004016104df90611268565b60405180910390fd5b505050565b60046020528060005260406000206000915054906101000a900460ff1681565b610515610a37565b80600660006101000a81548160ff02191690831515021790555050565b61053a610a37565b6105446000610ab5565b565b60008060009054906101000a900473ffffffffffffffffffffffffffffffffffffffff16905090565b610577610a37565b80600760008473ffffffffffffffffffffffffffffffffffffffff1673ffffffffffffffffffffffffffffffffffffffff168152602001908152602001600020819055505050565b600660009054906101000a900460ff1661060e576040517f08c379a0000000000000000000000000000000000000000000000000000000008152600401610605906112d4565b60405180910390fd5b60001515600560008473ffffffffffffffffffffffffffffffffffffffff1673ffffffffffffffffffffffffffffffffffffffff168152602001908152602001600020600083815260200190815260200160002060009054906101000a900460ff161515146106b2576040517f08c379a00000000000000000000000000000000000000000000000000000000081526004016106a990611340565b60405180910390fd5b6106bd338383610b79565b6106fc576040517f08c379a00000000000000000000000000000000000000000000000000000000081526004016106f3906113d2565b60405180910390fd5b6001600560008473ffffffffffffffffffffffffffffffffffffffff1673ffffffffffffffffffffffffffffffffffffffff168152602001908152602001600020600083815260200190815260200160002060006101000a81548160ff0219169083151502179055506000600760008473ffffffffffffffffffffffffffffffffffffffff1673ffffffffffffffffffffffffffffffffffffffff168152602001908152602001600020549050600160009054906101000a900473ffffffffffffffffffffffffffffffffffffffff1673ffffffffffffffffffffffffffffffffffffffff1663a9059cbb33836040518363ffffffff1660e01b81526004016108069291906111a0565b6020604051808303816000875af1158015610825573d6000803e3d6000fd5b505050506040513d601f19601f8201168201806040525081019061084991906111de565b50505050565b610857610a37565b80600160006101000a81548173ffffffffffffffffffffffffffffffffffffffff021916908373ffffffffffffffffffffffffffffffffffffffff16021790555050565b60056020528160005260406000206020528060005260406000206000915091509054906101000a900460ff1681565b60076020528060005260406000206000915090505481565b600660009054906101000a900460ff1681565b60036020528060005260406000206000915054906101000a900460ff1681565b61091d610a37565b600073ffffffffffffffffffffffffffffffffffffffff168173ffffffffffffffffffffffffffffffffffffffff160361098c576040517f08c379a000000000000000000000000000000000000000000000000000000000815260040161098390611464565b60405180910390fd5b61099581610ab5565b50565b6109a0610a37565b60003373ffffffffffffffffffffffffffffffffffffffff16476040516109c6906114b5565b60006040518083038185875af1925050503d8060008114610a03576040519150601f19603f3d011682016040523d82523d6000602084013e610a08565b606091505b50508091505050565b600160009054906101000a900473ffffffffffffffffffffffffffffffffffffffff1681565b610a3f610cb0565b73ffffffffffffffffffffffffffffffffffffffff16610a5d610546565b73ffffffffffffffffffffffffffffffffffffffff1614610ab3576040517f08c379a0000000000000000000000000000000000000000000000000000000008152600401610aaa90611516565b60405180910390fd5b565b60008060009054906101000a900473ffffffffffffffffffffffffffffffffffffffff169050816000806101000a81548173ffffffffffffffffffffffffffffffffffffffff021916908373ffffffffffffffffffffffffffffffffffffffff1602179055508173ffffffffffffffffffffffffffffffffffffffff168173ffffffffffffffffffffffffffffffffffffffff167f8be0079c531659141344cd1fd0a4f28419497f9722a3daafe3b4186f6b6457e060405160405180910390a35050565b6000808373ffffffffffffffffffffffffffffffffffffffff166370a08231866040518263ffffffff1660e01b8152600401610bb59190610e17565b602060405180830381865afa158015610bd2573d6000803e3d6000fd5b505050506040513d601f19601f82011682018060405250810190610bf6919061154b565b118015610ca757508373ffffffffffffffffffffffffffffffffffffffff168373ffffffffffffffffffffffffffffffffffffffff16636352211e846040518263ffffffff1660e01b8152600401610c4e9190610e9a565b602060405180830381865afa158015610c6b573d6000803e3d6000fd5b505050506040513d601f19601f82011682018060405250810190610c8f919061158d565b73ffffffffffffffffffffffffffffffffffffffff16145b90509392505050565b600033905090565b828054828255906000526020600020908101928215610d31579160200282015b82811115610d305782518260006101000a81548173ffffffffffffffffffffffffffffffffffffffff021916908373ffffffffffffffffffffffffffffffffffffffff16021790555091602001919060010190610cd8565b5b509050610d3e9190610d42565b5090565b5b80821115610d5b576000816000905550600101610d43565b5090565b6000604051905090565b600080fd5b600080fd5b6000819050919050565b610d8681610d73565b8114610d9157600080fd5b50565b600081359050610da381610d7d565b92915050565b600060208284031215610dbf57610dbe610d69565b5b6000610dcd84828501610d94565b91505092915050565b600073ffffffffffffffffffffffffffffffffffffffff82169050919050565b6000610e0182610dd6565b9050919050565b610e1181610df6565b82525050565b6000602082019050610e2c6000830184610e08565b92915050565b610e3b81610df6565b8114610e4657600080fd5b50565b600081359050610e5881610e32565b92915050565b600060208284031215610e7457610e73610d69565b5b6000610e8284828501610e49565b91505092915050565b610e9481610d73565b82525050565b6000602082019050610eaf6000830184610e8b565b92915050565b600080fd5b6000601f19601f8301169050919050565b7f4e487b7100000000000000000000000000000000000000000000000000000000600052604160045260246000fd5b610f0382610eba565b810181811067ffffffffffffffff82111715610f2257610f21610ecb565b5b80604052505050565b6000610f35610d5f565b9050610f418282610efa565b919050565b600067ffffffffffffffff821115610f6157610f60610ecb565b5b602082029050602081019050919050565b600080fd5b6000610f8a610f8584610f46565b610f2b565b90508083825260208201905060208402830185811115610fad57610fac610f72565b5b835b81811015610fd65780610fc28882610e49565b845260208401935050602081019050610faf565b5050509392505050565b600082601f830112610ff557610ff4610eb5565b5b8135611005848260208601610f77565b91505092915050565b60006020828403121561102457611023610d69565b5b600082013567ffffffffffffffff81111561104257611041610d6e565b5b61104e84828501610fe0565b91505092915050565b6000806040838503121561106e5761106d610d69565b5b600061107c85828601610e49565b925050602061108d85828601610d94565b9150509250929050565b60008115159050919050565b6110ac81611097565b82525050565b60006020820190506110c760008301846110a3565b92915050565b6110d681611097565b81146110e157600080fd5b50565b6000813590506110f3816110cd565b92915050565b60006020828403121561110f5761110e610d69565b5b600061111d848285016110e4565b91505092915050565b6000819050919050565b600061114b61114661114184610dd6565b611126565b610dd6565b9050919050565b600061115d82611130565b9050919050565b600061116f82611152565b9050919050565b61117f81611164565b82525050565b600060208201905061119a6000830184611176565b92915050565b60006040820190506111b56000830185610e08565b6111c26020830184610e8b565b9392505050565b6000815190506111d8816110cd565b92915050565b6000602082840312156111f4576111f3610d69565b5b6000611202848285016111c9565b91505092915050565b600082825260208201905092915050565b7f546f6b656e207472616e73666572206661696c65640000000000000000000000600082015250565b600061125260158361120b565b915061125d8261121c565b602082019050919050565b6000602082019050818103600083015261128181611245565b9050919050565b7f41697264726f70206973206e6f74206163746976650000000000000000000000600082015250565b60006112be60158361120b565b91506112c982611288565b602082019050919050565b600060208201905081810360008301526112ed816112b1565b9050919050565b7f4e465420616c726561647920636c61696d656400000000000000000000000000600082015250565b600061132a60138361120b565b9150611335826112f4565b602082019050919050565b600060208201905081810360008301526113598161131d565b9050919050565b7f41646472657373206973206e6f7420656c696769626c6520666f72206169726460008201527f726f7020776974682074686973204e4654000000000000000000000000000000602082015250565b60006113bc60318361120b565b91506113c782611360565b604082019050919050565b600060208201905081810360008301526113eb816113af565b9050919050565b7f4f776e61626c653a206e6577206f776e657220697320746865207a65726f206160008201527f6464726573730000000000000000000000000000000000000000000000000000602082015250565b600061144e60268361120b565b9150611459826113f2565b604082019050919050565b6000602082019050818103600083015261147d81611441565b9050919050565b600081905092915050565b50565b600061149f600083611484565b91506114aa8261148f565b600082019050919050565b60006114c082611492565b9150819050919050565b7f4f776e61626c653a2063616c6c6572206973206e6f7420746865206f776e6572600082015250565b600061150060208361120b565b915061150b826114ca565b602082019050919050565b6000602082019050818103600083015261152f816114f3565b9050919050565b60008151905061154581610d7d565b92915050565b60006020828403121561156157611560610d69565b5b600061156f84828501611536565b91505092915050565b60008151905061158781610e32565b92915050565b6000602082840312156115a3576115a2610d69565b5b60006115b184828501611578565b9150509291505056fea2646970667358221220a5f4ac410023d2fb2151b04c8457b0d06e7f3e1f6ea47a2cf73fe497e8a9718364736f6c63430008130033",
    "linkReferences": {},
    "deployedLinkReferences": {}
}